:020000040800F2
:10000000680600202902000865020008670200084F
:10001000690200086B0200086D0200080000000081
:100020000000000000000000000000006F02000857
:100030007102000800000000730200082903000894
:1000400077020008770200087702000877020008AC
:10005000770200087702000877020008770200089C
:10006000770200087702000877020008770200088C
:10007000770200087702000877020008770200087C
:10008000770200087702000877020008770200086C
:10009000770200087702000877020008770200085C
:1000A000770200087702000877020008770200084C
:1000B000770200087702000877020008770200083C
:1000C000770200087702000877020008770200082C
:1000D000770200087702000877020008770200081C
:1000E000770200087702000877020008770200080C
:1000F00077020008770200087702000877020008FC
:1001000077020008770200087702000877020008EB
:1001100077020008770200087702000877020008DB
:1001200077020008770200087702000877020008CB
:1001300077020008770200087702000877020008BB
:1001400077020008770200087702000877020008AB
:10015000770200087702000877020008770200089B
:10016000770200087702000877020008770200088B
:1001700077020008770200087702000800000000FC
:10018000770200087702000800F002F800F03CF85F
:100190000AA090E8000C82448344AAF10107DA45E2
:1001A00001D100F031F8AFF2090EBAE80F0013F0F8
:1001B000010F18BFFB1A43F0010318473804000071
:1001C00058040000103A24BF78C878C1FAD8520702
:1001D00024BF30C830C144BF04680C6070470000C1
:1001E0000023002400250026103A28BF78C1FBD840
:1001F000520728BF30C148BF0B6070471FB500F0E1
:10020000F3F91FBD10B510BD00F053F81146FFF70C
:10021000F5FF00F0C5F900F071F803B4FFF7F2FF45
:1002200003BC00F079F8000016481749174B9942B3
:100230003CBF50F8042B41F8042BF8D314494FF07D
:1002400000028B4238BF43F8042BFAD3DFF8440096
:10025000016841F470010160BFF34F8FBFF36F8FEE
:100260000D480047FEE7FEE7FEE7FEE7FEE7FEE794
:10027000FEE7FEE7FEE7FEE708480949094A0A4BA0
:100280007047000014060008000000200400002051
:100290006806002088ED00E0890100086800002061
:1002A000680600206802002068020020704770473E
:1002B0007047754600F02CF8AE4605006946534677
:1002C00020F00700854618B020B5FFF7D5FFBDE840
:1002D00020404FF000064FF000074FF000084FF0AD
:1002E000000B21F00701AC46ACE8C009ACE8C0093E
:1002F000ACE8C009ACE8C0098D46704710B50446AB
:10030000AFF300802046BDE81040FFF786BF000035
:10031000004870470400002001491820ABBEFEE7EA
:10032000260002007047000002480068401C014996
:10033000086070470000002010B500204FF0E02159
:10034000086140F2E730486100208861401E0121C9
:10035000002804DB0A07130E164A135406E00A07A6
:10036000140E154A00F00F031B1FD45400BF4FF0AA
:10037000FF30002809DB00F01F02012191404209F3
:10038000920002F1E022C2F8001100BF4FF0E0201D
:10039000006940F002004FF0E02108610846006962
:1003A00020F0040008610846006940F0010008617F
:1003B00010BD000000E400E018ED00E00E494969BE
:1003C00021F47C410C4A516111464969020941EA14
:1003D0008221094A51614FF09041496921F00F0192
:1003E0004FF0904251611146496900F00F021143EC
:1003F0004FF09042516170470010004810B504461C
:100400002046FFF7DBFF002300E05B1CB3F5705FC5
:10041000FBDB64082046FFF7D1FF002300E05B1CF4
:10042000B3F5345FFBDB64082046FFF7C7FF00230A
:1004300000E05B1CB3F5F05FFBDB64082046FFF7D0
:10044000BDFF002300E05B1CB3F5706FFBDB10BD4C
:1004500010B504462046FFF7B1FF002300E05B1C07
:10046000B3F5706FFBDBE4082046FFF7A7FF00231E
:1004700000E05B1CB3F5705FFBDB64002046FFF718
:100480009DFF002300E05B1CB3F5345FFBDB6400E1
:100490002046FFF793FF002300E05B1CB3F5F05FFD
:1004A000FBDB10BD3A48006840F4807038490860B2
:1004B00000BF3748006800F480600028F9D0344855
:1004C000806820F00300324988600846806840F068
:1004D0000100886000BF2E48806800F00C000028F2
:1004E000F9D02B48C06C40F013002949C864294852
:1004F000006820F03000274908600846006840F096
:100500001000086023481430006840F004002149BE
:100510001431086020480068C0F313001E490860C9
:10052000084600681D4908431B49086008464068A2
:10053000C0F3090048600846406848600846C06843
:10054000C0F31300C8600846C068C8604FF0904010
:10055000006820F0FF004FF09041086008460068F6
:1005600040F055000860084640684FF6F0710840BA
:100570004FF0904148600846406848600846C068AF
:1005800020F0FF00C8600846C068C86070470000DF
:1005900000100240000400480010004800005055C0
:1005A00001267402FFF7C8FEFFF77CFF1BE04EB187
:1005B000002503E02046FFF74BFF6D1C192DF9DBEA
:1005C000640808E0002503E02046FFF717FF6D1CD4
:1005D000192DF9DB6400012C01D1002603E0B4F5EC
:1005E000007F00D10126E2E74FF04070E1EE100AF3
:1005F00070470000140600080000002004000000FE
:10060000C401000818060008040000206406000069
:08061000E001000800000000F9
:040000050800018965
:00000001FF
